{
  "contractName": "Dex",
  "abi": [
    {
      "anonymous": false,
      "inputs": [
        {
          "indexed": true,
          "internalType": "address",
          "name": "previousOwner",
          "type": "address"
        },
        {
          "indexed": true,
          "internalType": "address",
          "name": "newOwner",
          "type": "address"
        }
      ],
      "name": "OwnershipTransferred",
      "type": "event"
    },
    {
      "inputs": [
        {
          "internalType": "bytes32",
          "name": "ticker",
          "type": "bytes32"
        },
        {
          "internalType": "address",
          "name": "tokenAddress",
          "type": "address"
        }
      ],
      "name": "addToken",
      "outputs": [],
      "stateMutability": "nonpayable",
      "type": "function"
    },
    {
      "inputs": [
        {
          "internalType": "address",
          "name": "",
          "type": "address"
        },
        {
          "internalType": "bytes32",
          "name": "",
          "type": "bytes32"
        }
      ],
      "name": "balances",
      "outputs": [
        {
          "internalType": "uint256",
          "name": "",
          "type": "uint256"
        }
      ],
      "stateMutability": "view",
      "type": "function"
    },
    {
      "inputs": [
        {
          "internalType": "uint256",
          "name": "amount",
          "type": "uint256"
        },
        {
          "internalType": "bytes32",
          "name": "ticker",
          "type": "bytes32"
        }
      ],
      "name": "deposit",
      "outputs": [],
      "stateMutability": "nonpayable",
      "type": "function"
    },
    {
      "inputs": [
        {
          "internalType": "bytes32",
          "name": "",
          "type": "bytes32"
        },
        {
          "internalType": "uint256",
          "name": "",
          "type": "uint256"
        },
        {
          "internalType": "uint256",
          "name": "",
          "type": "uint256"
        }
      ],
      "name": "orderBook",
      "outputs": [
        {
          "internalType": "uint256",
          "name": "id",
          "type": "uint256"
        },
        {
          "internalType": "address",
          "name": "trader",
          "type": "address"
        },
        {
          "internalType": "enum Dex.Side",
          "name": "side",
          "type": "uint8"
        },
        {
          "internalType": "bytes32",
          "name": "ticker",
          "type": "bytes32"
        },
        {
          "internalType": "uint256",
          "name": "amount",
          "type": "uint256"
        },
        {
          "internalType": "uint256",
          "name": "price",
          "type": "uint256"
        }
      ],
      "stateMutability": "view",
      "type": "function"
    },
    {
      "inputs": [],
      "name": "owner",
      "outputs": [
        {
          "internalType": "address",
          "name": "",
          "type": "address"
        }
      ],
      "stateMutability": "view",
      "type": "function"
    },
    {
      "inputs": [],
      "name": "renounceOwnership",
      "outputs": [],
      "stateMutability": "nonpayable",
      "type": "function"
    },
    {
      "inputs": [
        {
          "internalType": "uint256",
          "name": "",
          "type": "uint256"
        }
      ],
      "name": "tokenList",
      "outputs": [
        {
          "internalType": "bytes32",
          "name": "",
          "type": "bytes32"
        }
      ],
      "stateMutability": "view",
      "type": "function"
    },
    {
      "inputs": [
        {
          "internalType": "bytes32",
          "name": "",
          "type": "bytes32"
        }
      ],
      "name": "tokenMapping",
      "outputs": [
        {
          "internalType": "bytes32",
          "name": "ticker",
          "type": "bytes32"
        },
        {
          "internalType": "address",
          "name": "tokenAddress",
          "type": "address"
        }
      ],
      "stateMutability": "view",
      "type": "function"
    },
    {
      "inputs": [
        {
          "internalType": "address",
          "name": "newOwner",
          "type": "address"
        }
      ],
      "name": "transferOwnership",
      "outputs": [],
      "stateMutability": "nonpayable",
      "type": "function"
    },
    {
      "inputs": [
        {
          "internalType": "uint256",
          "name": "amount",
          "type": "uint256"
        },
        {
          "internalType": "bytes32",
          "name": "ticker",
          "type": "bytes32"
        }
      ],
      "name": "withdraw",
      "outputs": [],
      "stateMutability": "nonpayable",
      "type": "function"
    },
    {
      "inputs": [
        {
          "internalType": "bytes32",
          "name": "ticker",
          "type": "bytes32"
        },
        {
          "internalType": "enum Dex.Side",
          "name": "side",
          "type": "uint8"
        }
      ],
      "name": "getOrderBook",
      "outputs": [
        {
          "components": [
            {
              "internalType": "uint256",
              "name": "id",
              "type": "uint256"
            },
            {
              "internalType": "address",
              "name": "trader",
              "type": "address"
            },
            {
              "internalType": "enum Dex.Side",
              "name": "side",
              "type": "uint8"
            },
            {
              "internalType": "bytes32",
              "name": "ticker",
              "type": "bytes32"
            },
            {
              "internalType": "uint256",
              "name": "amount",
              "type": "uint256"
            },
            {
              "internalType": "uint256",
              "name": "price",
              "type": "uint256"
            }
          ],
          "internalType": "struct Dex.Order[]",
          "name": "",
          "type": "tuple[]"
        }
      ],
      "stateMutability": "view",
      "type": "function"
    },
    {
      "inputs": [
        {
          "internalType": "enum Dex.Side",
          "name": "side",
          "type": "uint8"
        },
        {
          "internalType": "bytes32",
          "name": "ticker",
          "type": "bytes32"
        },
        {
          "internalType": "uint256",
          "name": "amount",
          "type": "uint256"
        },
        {
          "internalType": "uint256",
          "name": "price",
          "type": "uint256"
        }
      ],
      "name": "createLimitOder",
      "outputs": [],
      "stateMutability": "nonpayable",
      "type": "function"
    }
  ],
  "bytecode": "0x608060405234801561001057600080fd5b5060006100216100c460201b60201c565b9050806000806101000a81548173ffffffffffffffffffffffffffffffffffffffff021916908373ffffffffffffffffffffffffffffffffffffffff1602179055508073ffffffffffffffffffffffffffffffffffffffff16600073ffffffffffffffffffffffffffffffffffffffff167f8be0079c531659141344cd1fd0a4f28419497f9722a3daafe3b4186f6b6457e060405160405180910390a3506100cc565b600033905090565b61199b806100db6000396000f3fe608060405234801561001057600080fd5b50600436106100b45760003560e01c80639776aacf116100715780639776aacf146101935780639ead7222146101af578063a8d2021a146101df578063ba58ea68146101fb578063c9630cb01461022b578063f2fde38b14610247576100b4565b80630bb431b6146100b95780631f14df69146100ee578063667cb4ba1461011e578063715018a61461014f5780638da5cb5b1461015957806391e6d2f114610177575b600080fd5b6100d360048036038101906100ce919061115f565b610263565b6040516100e596959493929190611681565b60405180910390f35b61010860048036038101906101039190611059565b6102f6565b6040516101159190611666565b60405180910390f35b610138600480360381019061013391906110be565b61031b565b6040516101469291906115bd565b60405180910390f35b61015761035f565b005b610161610499565b60405161016e9190611505565b60405180910390f35b610191600480360381019061018c91906111ae565b6104c2565b005b6101ad60048036038101906101a891906110e7565b6105d1565b005b6101c960048036038101906101c49190611211565b61070c565b6040516101d691906115a2565b60405180910390f35b6101f960048036038101906101f4919061123a565b610730565b005b61021560048036038101906102109190611123565b6109ea565b6040516102229190611580565b60405180910390f35b6102456004803603810190610240919061123a565b610bab565b005b610261600480360381019061025c9190611030565b610dd4565b005b6004602052826000526040600020602052816000526040600020818154811061028b57600080fd5b906000526020600020906005020160009250925050508060000154908060010160009054906101000a900473ffffffffffffffffffffffffffffffffffffffff16908060010160149054906101000a900460ff16908060020154908060030154908060040154905086565b6003602052816000526040600020602052806000526040600020600091509150505481565b60016020528060005260406000206000915090508060000154908060010160009054906101000a900473ffffffffffffffffffffffffffffffffffffffff16905082565b610367610f7d565b73ffffffffffffffffffffffffffffffffffffffff16610385610499565b73ffffffffffffffffffffffffffffffffffffffff16146103db576040517f08c379a00000000000000000000000000000000000000000000000000000000081526004016103d290611626565b60405180910390fd5b600073ffffffffffffffffffffffffffffffffffffffff1660008054906101000a900473ffffffffffffffffffffffffffffffffffffffff1673ffffffffffffffffffffffffffffffffffffffff167f8be0079c531659141344cd1fd0a4f28419497f9722a3daafe3b4186f6b6457e060405160405180910390a360008060006101000a81548173ffffffffffffffffffffffffffffffffffffffff021916908373ffffffffffffffffffffffffffffffffffffffff160217905550565b60008060009054906101000a900473ffffffffffffffffffffffffffffffffffffffff16905090565b600060018111156104fc577f4e487b7100000000000000000000000000000000000000000000000000000000600052602160045260246000fd5b846001811115610535577f4e487b7100000000000000000000000000000000000000000000000000000000600052602160045260246000fd5b14156105cb5761054e8183610f8590919063ffffffff16565b600360003373ffffffffffffffffffffffffffffffffffffffff1673ffffffffffffffffffffffffffffffffffffffff16815260200190815260200160002060007f455448000000000000000000000000000000000000000000000000000000000081526020019081526020016000205410156105ca57600080fd5b5b50505050565b6105d9610f7d565b73ffffffffffffffffffffffffffffffffffffffff166105f7610499565b73ffffffffffffffffffffffffffffffffffffffff161461064d576040517f08c379a000000000000000000000000000000000000000000000000000000000815260040161064490611626565b60405180910390fd5b60405180604001604052808381526020018273ffffffffffffffffffffffffffffffffffffffff16815250600160008481526020019081526020016000206000820151816000015560208201518160010160006101000a81548173ffffffffffffffffffffffffffffffffffffffff021916908373ffffffffffffffffffffffffffffffffffffffff16021790555090505060028290806001815401808255809150506001900390600052602060002001600090919091909150555050565b6002818154811061071c57600080fd5b906000526020600020016000915090505481565b80600073ffffffffffffffffffffffffffffffffffffffff166001600083815260200190815260200160002060010160009054906101000a900473ffffffffffffffffffffffffffffffffffffffff1673ffffffffffffffffffffffffffffffffffffffff1614156107d7576040517f08c379a00000000000000000000000000000000000000000000000000000000081526004016107ce90611606565b60405180910390fd5b82600360003373ffffffffffffffffffffffffffffffffffffffff1673ffffffffffffffffffffffffffffffffffffffff168152602001908152602001600020600084815260200190815260200160002054101561086a576040517f08c379a000000000000000000000000000000000000000000000000000000000815260040161086190611646565b60405180910390fd5b6108cd83600360003373ffffffffffffffffffffffffffffffffffffffff1673ffffffffffffffffffffffffffffffffffffffff168152602001908152602001600020600085815260200190815260200160002054610f9b90919063ffffffff16565b600360003373ffffffffffffffffffffffffffffffffffffffff1673ffffffffffffffffffffffffffffffffffffffff1681526020019081526020016000206000848152602001908152602001600020819055506001600083815260200190815260200160002060010160009054906101000a900473ffffffffffffffffffffffffffffffffffffffff1673ffffffffffffffffffffffffffffffffffffffff1663a9059cbb33856040518363ffffffff1660e01b8152600401610992929190611557565b602060405180830381600087803b1580156109ac57600080fd5b505af11580156109c0573d6000803e3d6000fd5b505050506040513d601f19601f820116820180604052508101906109e49190611095565b50505050565b6060600460008481526020019081526020016000206000836001811115610a3a577f4e487b7100000000000000000000000000000000000000000000000000000000600052602160045260246000fd5b8152602001908152602001600020805480602002602001604051908101604052809291908181526020016000905b82821015610b9f57838290600052602060002090600502016040518060c0016040529081600082015481526020016001820160009054906101000a900473ffffffffffffffffffffffffffffffffffffffff1673ffffffffffffffffffffffffffffffffffffffff1673ffffffffffffffffffffffffffffffffffffffff1681526020016001820160149054906101000a900460ff166001811115610b36577f4e487b7100000000000000000000000000000000000000000000000000000000600052602160045260246000fd5b6001811115610b6e577f4e487b7100000000000000000000000000000000000000000000000000000000600052602160045260246000fd5b8152602001600282015481526020016003820154815260200160048201548152505081526020019060010190610a68565b50505050905092915050565b80600073ffffffffffffffffffffffffffffffffffffffff166001600083815260200190815260200160002060010160009054906101000a900473ffffffffffffffffffffffffffffffffffffffff1673ffffffffffffffffffffffffffffffffffffffff161415610c52576040517f08c379a0000000000000000000000000000000000000000000000000000000008152600401610c4990611606565b60405180910390fd5b6001600083815260200190815260200160002060010160009054906101000a900473ffffffffffffffffffffffffffffffffffffffff1673ffffffffffffffffffffffffffffffffffffffff166323b872dd3330866040518463ffffffff1660e01b8152600401610cc593929190611520565b602060405180830381600087803b158015610cdf57600080fd5b505af1158015610cf3573d6000803e3d6000fd5b505050506040513d601f19601f82011682018060405250810190610d179190611095565b50610d7b83600360003373ffffffffffffffffffffffffffffffffffffffff1673ffffffffffffffffffffffffffffffffffffffff168152602001908152602001600020600085815260200190815260200160002054610fb190919063ffffffff16565b600360003373ffffffffffffffffffffffffffffffffffffffff1673ffffffffffffffffffffffffffffffffffffffff168152602001908152602001600020600084815260200190815260200160002081905550505050565b610ddc610f7d565b73ffffffffffffffffffffffffffffffffffffffff16610dfa610499565b73ffffffffffffffffffffffffffffffffffffffff1614610e50576040517f08c379a0000000000000000000000000000000000000000000000000000000008152600401610e4790611626565b60405180910390fd5b600073ffffffffffffffffffffffffffffffffffffffff168173ffffffffffffffffffffffffffffffffffffffff161415610ec0576040517f08c379a0000000000000000000000000000000000000000000000000000000008152600401610eb7906115e6565b60405180910390fd5b8073ffffffffffffffffffffffffffffffffffffffff1660008054906101000a900473ffffffffffffffffffffffffffffffffffffffff1673ffffffffffffffffffffffffffffffffffffffff167f8be0079c531659141344cd1fd0a4f28419497f9722a3daafe3b4186f6b6457e060405160405180910390a3806000806101000a81548173ffffffffffffffffffffffffffffffffffffffff021916908373ffffffffffffffffffffffffffffffffffffffff16021790555050565b600033905090565b60008183610f939190611782565b905092915050565b60008183610fa991906117dc565b905092915050565b60008183610fbf919061172c565b905092915050565b600081359050610fd6816118f9565b92915050565b600081519050610feb81611910565b92915050565b60008135905061100081611927565b92915050565b6000813590506110158161193e565b92915050565b60008135905061102a8161194e565b92915050565b60006020828403121561104257600080fd5b600061105084828501610fc7565b91505092915050565b6000806040838503121561106c57600080fd5b600061107a85828601610fc7565b925050602061108b85828601610ff1565b9150509250929050565b6000602082840312156110a757600080fd5b60006110b584828501610fdc565b91505092915050565b6000602082840312156110d057600080fd5b60006110de84828501610ff1565b91505092915050565b600080604083850312156110fa57600080fd5b600061110885828601610ff1565b925050602061111985828601610fc7565b9150509250929050565b6000806040838503121561113657600080fd5b600061114485828601610ff1565b925050602061115585828601611006565b9150509250929050565b60008060006060848603121561117457600080fd5b600061118286828701610ff1565b93505060206111938682870161101b565b92505060406111a48682870161101b565b9150509250925092565b600080600080608085870312156111c457600080fd5b60006111d287828801611006565b94505060206111e387828801610ff1565b93505060406111f48782880161101b565b92505060606112058782880161101b565b91505092959194509250565b60006020828403121561122357600080fd5b60006112318482850161101b565b91505092915050565b6000806040838503121561124d57600080fd5b600061125b8582860161101b565b925050602061126c85828601610ff1565b9150509250929050565b6000611282838361146c565b60c08301905092915050565b61129781611810565b82525050565b6112a681611810565b82525050565b60006112b7826116f2565b6112c1818561170a565b93506112cc836116e2565b8060005b838110156112fd5781516112e48882611276565b97506112ef836116fd565b9250506001810190506112d0565b5085935050505092915050565b6113138161182e565b82525050565b6113228161182e565b82525050565b61133181611875565b82525050565b61134081611875565b82525050565b600061135360268361171b565b91507f4f776e61626c653a206e6577206f776e657220697320746865207a65726f206160008301527f64647265737300000000000000000000000000000000000000000000000000006020830152604082019050919050565b60006113b960148361171b565b91507f546f6b656e20646f6573206e6f742065786973740000000000000000000000006000830152602082019050919050565b60006113f960208361171b565b91507f4f776e61626c653a2063616c6c6572206973206e6f7420746865206f776e65726000830152602082019050919050565b600061143960168361171b565b91507f42616c616e6365206e6f742073756666696369656e74000000000000000000006000830152602082019050919050565b60c08201600082015161148260008501826114e7565b506020820151611495602085018261128e565b5060408201516114a86040850182611328565b5060608201516114bb606085018261130a565b5060808201516114ce60808501826114e7565b5060a08201516114e160a08501826114e7565b50505050565b6114f08161186b565b82525050565b6114ff8161186b565b82525050565b600060208201905061151a600083018461129d565b92915050565b6000606082019050611535600083018661129d565b611542602083018561129d565b61154f60408301846114f6565b949350505050565b600060408201905061156c600083018561129d565b61157960208301846114f6565b9392505050565b6000602082019050818103600083015261159a81846112ac565b905092915050565b60006020820190506115b76000830184611319565b92915050565b60006040820190506115d26000830185611319565b6115df602083018461129d565b9392505050565b600060208201905081810360008301526115ff81611346565b9050919050565b6000602082019050818103600083015261161f816113ac565b9050919050565b6000602082019050818103600083015261163f816113ec565b9050919050565b6000602082019050818103600083015261165f8161142c565b9050919050565b600060208201905061167b60008301846114f6565b92915050565b600060c08201905061169660008301896114f6565b6116a3602083018861129d565b6116b06040830187611337565b6116bd6060830186611319565b6116ca60808301856114f6565b6116d760a08301846114f6565b979650505050505050565b6000819050602082019050919050565b600081519050919050565b6000602082019050919050565b600082825260208201905092915050565b600082825260208201905092915050565b60006117378261186b565b91506117428361186b565b9250827fffffffffffffffffffffffffffffffffffffffffffffffffffffffffffffffff0382111561177757611776611887565b5b828201905092915050565b600061178d8261186b565b91506117988361186b565b9250817fffffffffffffffffffffffffffffffffffffffffffffffffffffffffffffffff04831182151516156117d1576117d0611887565b5b828202905092915050565b60006117e78261186b565b91506117f28361186b565b92508282101561180557611804611887565b5b828203905092915050565b600061181b8261184b565b9050919050565b60008115159050919050565b6000819050919050565b6000819050611846826118e5565b919050565b600073ffffffffffffffffffffffffffffffffffffffff82169050919050565b6000819050919050565b600061188082611838565b9050919050565b7f4e487b7100000000000000000000000000000000000000000000000000000000600052601160045260246000fd5b7f4e487b7100000000000000000000000000000000000000000000000000000000600052602160045260246000fd5b600281106118f6576118f56118b6565b5b50565b61190281611810565b811461190d57600080fd5b50565b61191981611822565b811461192457600080fd5b50565b6119308161182e565b811461193b57600080fd5b50565b6002811061194b57600080fd5b50565b6119578161186b565b811461196257600080fd5b5056fea26469706673582212200fbd04d0c9177eb53e0f60cfb15817c7b6373be624a0fce7adfd81f565e5cb2d64736f6c63430008000033",
  "immutableReferences": {},
  "source": "// SPDX-License-Identifier: UNLICENSED\npragma solidity ^0.8.0;\npragma experimental ABIEncoderV2;\n\nimport \"./Wallet.sol\";\n\ncontract Dex is Wallet {\n\n    using SafeMath for uint256;\n\n    enum Side {\n        BUY,\n        SELL\n    }\n\n    struct Order {\n       uint id;\n       address trader;\n       Side side;\n    //    bool buyOrder;\n       bytes32 ticker;\n       uint amount;\n       uint price;\n    }\n\n    mapping(bytes32 => mapping(uint => Order[])) public orderBook;\n\n    function getOrderBook(bytes32 ticker, Side side) view public returns(Order[] memory) {\n        return orderBook[ticker][uint(side)];\n    }\n\n    function createLimitOder(Side side, bytes32 ticker, uint amount, uint price) public {\n        if(side == Side.BUY) {\n            require(balances[msg.sender][\"ETH\"] >= amount.mul(price));\n        }\n    }\n\n}",
  "sourcePath": "/home/kresna/projects/ivan-academy/dex/contracts/Dex.sol",
  "compiler": {
    "name": "solc",
    "version": "0.8.0+commit.c7dfd78e.Emscripten.clang"
  },
  "schemaVersion": "3.3.4",
  "updatedAt": "2021-05-12T16:45:17.710Z",
  "devdoc": {
    "kind": "dev",
    "methods": {
      "owner()": {
        "details": "Returns the address of the current owner."
      },
      "renounceOwnership()": {
        "details": "Leaves the contract without owner. It will not be possible to call `onlyOwner` functions anymore. Can only be called by the current owner. NOTE: Renouncing ownership will leave the contract without an owner, thereby removing any functionality that is only available to the owner."
      },
      "transferOwnership(address)": {
        "details": "Transfers ownership of the contract to a new account (`newOwner`). Can only be called by the current owner."
      }
    },
    "version": 1
  },
  "userdoc": {
    "kind": "user",
    "methods": {},
    "version": 1
  }
}