{
  "contractName": "Dex",
  "abi": [
    {
      "anonymous": false,
      "inputs": [
        {
          "indexed": true,
          "internalType": "address",
          "name": "previousOwner",
          "type": "address"
        },
        {
          "indexed": true,
          "internalType": "address",
          "name": "newOwner",
          "type": "address"
        }
      ],
      "name": "OwnershipTransferred",
      "type": "event"
    },
    {
      "inputs": [
        {
          "internalType": "bytes32",
          "name": "ticker",
          "type": "bytes32"
        },
        {
          "internalType": "address",
          "name": "tokenAddress",
          "type": "address"
        }
      ],
      "name": "addToken",
      "outputs": [],
      "stateMutability": "nonpayable",
      "type": "function"
    },
    {
      "inputs": [
        {
          "internalType": "address",
          "name": "",
          "type": "address"
        },
        {
          "internalType": "bytes32",
          "name": "",
          "type": "bytes32"
        }
      ],
      "name": "balances",
      "outputs": [
        {
          "internalType": "uint256",
          "name": "",
          "type": "uint256"
        }
      ],
      "stateMutability": "view",
      "type": "function"
    },
    {
      "inputs": [
        {
          "internalType": "uint256",
          "name": "amount",
          "type": "uint256"
        },
        {
          "internalType": "bytes32",
          "name": "ticker",
          "type": "bytes32"
        }
      ],
      "name": "deposit",
      "outputs": [],
      "stateMutability": "nonpayable",
      "type": "function"
    },
    {
      "inputs": [],
      "name": "nextOrderId",
      "outputs": [
        {
          "internalType": "uint256",
          "name": "",
          "type": "uint256"
        }
      ],
      "stateMutability": "view",
      "type": "function"
    },
    {
      "inputs": [
        {
          "internalType": "bytes32",
          "name": "",
          "type": "bytes32"
        },
        {
          "internalType": "uint256",
          "name": "",
          "type": "uint256"
        },
        {
          "internalType": "uint256",
          "name": "",
          "type": "uint256"
        }
      ],
      "name": "orderBook",
      "outputs": [
        {
          "internalType": "uint256",
          "name": "id",
          "type": "uint256"
        },
        {
          "internalType": "address",
          "name": "trader",
          "type": "address"
        },
        {
          "internalType": "enum Dex.Side",
          "name": "side",
          "type": "uint8"
        },
        {
          "internalType": "bytes32",
          "name": "ticker",
          "type": "bytes32"
        },
        {
          "internalType": "uint256",
          "name": "amount",
          "type": "uint256"
        },
        {
          "internalType": "uint256",
          "name": "price",
          "type": "uint256"
        }
      ],
      "stateMutability": "view",
      "type": "function"
    },
    {
      "inputs": [],
      "name": "owner",
      "outputs": [
        {
          "internalType": "address",
          "name": "",
          "type": "address"
        }
      ],
      "stateMutability": "view",
      "type": "function"
    },
    {
      "inputs": [],
      "name": "renounceOwnership",
      "outputs": [],
      "stateMutability": "nonpayable",
      "type": "function"
    },
    {
      "inputs": [
        {
          "internalType": "uint256",
          "name": "",
          "type": "uint256"
        }
      ],
      "name": "tokenList",
      "outputs": [
        {
          "internalType": "bytes32",
          "name": "",
          "type": "bytes32"
        }
      ],
      "stateMutability": "view",
      "type": "function"
    },
    {
      "inputs": [
        {
          "internalType": "bytes32",
          "name": "",
          "type": "bytes32"
        }
      ],
      "name": "tokenMapping",
      "outputs": [
        {
          "internalType": "bytes32",
          "name": "ticker",
          "type": "bytes32"
        },
        {
          "internalType": "address",
          "name": "tokenAddress",
          "type": "address"
        }
      ],
      "stateMutability": "view",
      "type": "function"
    },
    {
      "inputs": [
        {
          "internalType": "address",
          "name": "newOwner",
          "type": "address"
        }
      ],
      "name": "transferOwnership",
      "outputs": [],
      "stateMutability": "nonpayable",
      "type": "function"
    },
    {
      "inputs": [
        {
          "internalType": "uint256",
          "name": "amount",
          "type": "uint256"
        },
        {
          "internalType": "bytes32",
          "name": "ticker",
          "type": "bytes32"
        }
      ],
      "name": "withdraw",
      "outputs": [],
      "stateMutability": "nonpayable",
      "type": "function"
    },
    {
      "inputs": [
        {
          "internalType": "bytes32",
          "name": "ticker",
          "type": "bytes32"
        },
        {
          "internalType": "enum Dex.Side",
          "name": "side",
          "type": "uint8"
        }
      ],
      "name": "getOrderBook",
      "outputs": [
        {
          "components": [
            {
              "internalType": "uint256",
              "name": "id",
              "type": "uint256"
            },
            {
              "internalType": "address",
              "name": "trader",
              "type": "address"
            },
            {
              "internalType": "enum Dex.Side",
              "name": "side",
              "type": "uint8"
            },
            {
              "internalType": "bytes32",
              "name": "ticker",
              "type": "bytes32"
            },
            {
              "internalType": "uint256",
              "name": "amount",
              "type": "uint256"
            },
            {
              "internalType": "uint256",
              "name": "price",
              "type": "uint256"
            }
          ],
          "internalType": "struct Dex.Order[]",
          "name": "",
          "type": "tuple[]"
        }
      ],
      "stateMutability": "view",
      "type": "function"
    },
    {
      "inputs": [
        {
          "internalType": "enum Dex.Side",
          "name": "side",
          "type": "uint8"
        },
        {
          "internalType": "bytes32",
          "name": "ticker",
          "type": "bytes32"
        },
        {
          "internalType": "uint256",
          "name": "amount",
          "type": "uint256"
        },
        {
          "internalType": "uint256",
          "name": "price",
          "type": "uint256"
        }
      ],
      "name": "createLimitOrder",
      "outputs": [],
      "stateMutability": "nonpayable",
      "type": "function"
    }
  ],
  "bytecode": "0x6080604052600060045534801561001557600080fd5b5060006100266100c960201b60201c565b9050806000806101000a81548173ffffffffffffffffffffffffffffffffffffffff021916908373ffffffffffffffffffffffffffffffffffffffff1602179055508073ffffffffffffffffffffffffffffffffffffffff16600073ffffffffffffffffffffffffffffffffffffffff167f8be0079c531659141344cd1fd0a4f28419497f9722a3daafe3b4186f6b6457e060405160405180910390a3506100d1565b600033905090565b6127d2806100e06000396000f3fe608060405234801561001057600080fd5b50600436106100cf5760003560e01c80638da5cb5b1161008c578063a8d2021a11610066578063a8d2021a14610218578063ba58ea6814610234578063c9630cb014610264578063f2fde38b14610280576100cf565b80638da5cb5b146101ae5780639776aacf146101cc5780639ead7222146101e8576100cf565b80630bb431b6146100d45780631f14df69146101095780632a58b33014610139578063667cb4ba146101575780636f3b62f914610188578063715018a6146101a4575b600080fd5b6100ee60048036038101906100e99190611f23565b61029c565b60405161010096959493929190612445565b60405180910390f35b610123600480360381019061011e9190611e1d565b61032f565b604051610130919061242a565b60405180910390f35b610141610354565b60405161014e919061242a565b60405180910390f35b610171600480360381019061016c9190611e82565b61035a565b60405161017f929190612381565b60405180910390f35b6101a2600480360381019061019d9190611f72565b61039e565b005b6101ac611232565b005b6101b661136c565b6040516101c391906122c9565b60405180910390f35b6101e660048036038101906101e19190611eab565b611395565b005b61020260048036038101906101fd9190611fd5565b6114d0565b60405161020f9190612366565b60405180910390f35b610232600480360381019061022d9190611ffe565b6114f4565b005b61024e60048036038101906102499190611ee7565b6117ae565b60405161025b9190612344565b60405180910390f35b61027e60048036038101906102799190611ffe565b61196f565b005b61029a60048036038101906102959190611df4565b611b98565b005b600560205282600052604060002060205281600052604060002081815481106102c457600080fd5b906000526020600020906005020160009250925050508060000154908060010160009054906101000a900473ffffffffffffffffffffffffffffffffffffffff16908060010160149054906101000a900460ff16908060020154908060030154908060040154905086565b6003602052816000526040600020602052806000526040600020600091509150505481565b60045481565b60016020528060005260406000206000915090508060000154908060010160009054906101000a900473ffffffffffffffffffffffffffffffffffffffff16905082565b600060018111156103d8577f4e487b7100000000000000000000000000000000000000000000000000000000600052602160045260246000fd5b846001811115610411577f4e487b7100000000000000000000000000000000000000000000000000000000600052602160045260246000fd5b14156104ab5761042a8183611d4190919063ffffffff16565b600360003373ffffffffffffffffffffffffffffffffffffffff1673ffffffffffffffffffffffffffffffffffffffff16815260200190815260200160002060007f455448000000000000000000000000000000000000000000000000000000000081526020019081526020016000205410156104a657600080fd5b610582565b6001808111156104e4577f4e487b7100000000000000000000000000000000000000000000000000000000600052602160045260246000fd5b84600181111561051d577f4e487b7100000000000000000000000000000000000000000000000000000000600052602160045260246000fd5b14156105815781600360003373ffffffffffffffffffffffffffffffffffffffff1673ffffffffffffffffffffffffffffffffffffffff168152602001908152602001600020600085815260200190815260200160002054101561058057600080fd5b5b5b60006005600085815260200190815260200160002060008660018111156105d2577f4e487b7100000000000000000000000000000000000000000000000000000000600052602160045260246000fd5b81526020019081526020016000209050806040518060c0016040528060045481526020013373ffffffffffffffffffffffffffffffffffffffff16815260200187600181111561064b577f4e487b7100000000000000000000000000000000000000000000000000000000600052602160045260246000fd5b81526020018681526020018581526020018481525090806001815401808255809150506001900390600052602060002090600502016000909190919091506000820151816000015560208201518160010160006101000a81548173ffffffffffffffffffffffffffffffffffffffff021916908373ffffffffffffffffffffffffffffffffffffffff16021790555060408201518160010160146101000a81548160ff0219169083600181111561072b577f4e487b7100000000000000000000000000000000000000000000000000000000600052602160045260246000fd5b0217905550606082015181600201556080820151816003015560a082015181600401555050600080828054905011610764576000610776565b6001828054905061077591906125a0565b5b9050600060018111156107b2577f4e487b7100000000000000000000000000000000000000000000000000000000600052602160045260246000fd5b8660018111156107eb577f4e487b7100000000000000000000000000000000000000000000000000000000600052602160045260246000fd5b1415610cc7575b6000811115610cc257818181548110610834577f4e487b7100000000000000000000000000000000000000000000000000000000600052603260045260246000fd5b9060005260206000209060050201600401548260018361085491906125a0565b8154811061088b577f4e487b7100000000000000000000000000000000000000000000000000000000600052603260045260246000fd5b90600052602060002090600502016004015411156108a857610cc2565b6000826001836108b891906125a0565b815481106108ef577f4e487b7100000000000000000000000000000000000000000000000000000000600052603260045260246000fd5b90600052602060002090600502016040518060c0016040529081600082015481526020016001820160009054906101000a900473ffffffffffffffffffffffffffffffffffffffff1673ffffffffffffffffffffffffffffffffffffffff1673ffffffffffffffffffffffffffffffffffffffff1681526020016001820160149054906101000a900460ff1660018111156109b3577f4e487b7100000000000000000000000000000000000000000000000000000000600052602160045260246000fd5b60018111156109eb577f4e487b7100000000000000000000000000000000000000000000000000000000600052602160045260246000fd5b815260200160028201548152602001600382015481526020016004820154815250509050828281548110610a48577f4e487b7100000000000000000000000000000000000000000000000000000000600052603260045260246000fd5b906000526020600020906005020183600184610a6491906125a0565b81548110610a9b577f4e487b7100000000000000000000000000000000000000000000000000000000600052603260045260246000fd5b9060005260206000209060050201600082015481600001556001820160009054906101000a900473ffffffffffffffffffffffffffffffffffffffff168160010160006101000a81548173ffffffffffffffffffffffffffffffffffffffff021916908373ffffffffffffffffffffffffffffffffffffffff1602179055506001820160149054906101000a900460ff168160010160146101000a81548160ff02191690836001811115610b78577f4e487b7100000000000000000000000000000000000000000000000000000000600052602160045260246000fd5b021790555060028201548160020155600382015481600301556004820154816004015590505080838381548110610bd8577f4e487b7100000000000000000000000000000000000000000000000000000000600052603260045260246000fd5b90600052602060002090600502016000820151816000015560208201518160010160006101000a81548173ffffffffffffffffffffffffffffffffffffffff021916908373ffffffffffffffffffffffffffffffffffffffff16021790555060408201518160010160146101000a81548160ff02191690836001811115610c88577f4e487b7100000000000000000000000000000000000000000000000000000000600052602160045260246000fd5b0217905550606082015181600201556080820151816003015560a082015181600401559050508180610cb99061264b565b925050506107f2565b611212565b600180811115610d00577f4e487b7100000000000000000000000000000000000000000000000000000000600052602160045260246000fd5b866001811115610d39577f4e487b7100000000000000000000000000000000000000000000000000000000600052602160045260246000fd5b1415611211575b600081111561121057818181548110610d82577f4e487b7100000000000000000000000000000000000000000000000000000000600052603260045260246000fd5b90600052602060002090600502016004015482600183610da291906125a0565b81548110610dd9577f4e487b7100000000000000000000000000000000000000000000000000000000600052603260045260246000fd5b9060005260206000209060050201600401541015610df657611210565b600082600183610e0691906125a0565b81548110610e3d577f4e487b7100000000000000000000000000000000000000000000000000000000600052603260045260246000fd5b90600052602060002090600502016040518060c0016040529081600082015481526020016001820160009054906101000a900473ffffffffffffffffffffffffffffffffffffffff1673ffffffffffffffffffffffffffffffffffffffff1673ffffffffffffffffffffffffffffffffffffffff1681526020016001820160149054906101000a900460ff166001811115610f01577f4e487b7100000000000000000000000000000000000000000000000000000000600052602160045260246000fd5b6001811115610f39577f4e487b7100000000000000000000000000000000000000000000000000000000600052602160045260246000fd5b815260200160028201548152602001600382015481526020016004820154815250509050828281548110610f96577f4e487b7100000000000000000000000000000000000000000000000000000000600052603260045260246000fd5b906000526020600020906005020183600184610fb291906125a0565b81548110610fe9577f4e487b7100000000000000000000000000000000000000000000000000000000600052603260045260246000fd5b9060005260206000209060050201600082015481600001556001820160009054906101000a900473ffffffffffffffffffffffffffffffffffffffff168160010160006101000a81548173ffffffffffffffffffffffffffffffffffffffff021916908373ffffffffffffffffffffffffffffffffffffffff1602179055506001820160149054906101000a900460ff168160010160146101000a81548160ff021916908360018111156110c6577f4e487b7100000000000000000000000000000000000000000000000000000000600052602160045260246000fd5b021790555060028201548160020155600382015481600301556004820154816004015590505080838381548110611126577f4e487b7100000000000000000000000000000000000000000000000000000000600052603260045260246000fd5b90600052602060002090600502016000820151816000015560208201518160010160006101000a81548173ffffffffffffffffffffffffffffffffffffffff021916908373ffffffffffffffffffffffffffffffffffffffff16021790555060408201518160010160146101000a81548160ff021916908360018111156111d6577f4e487b7100000000000000000000000000000000000000000000000000000000600052602160045260246000fd5b0217905550606082015181600201556080820151816003015560a0820151816004015590505081806112079061264b565b92505050610d40565b5b5b6004600081548092919061122590612675565b9190505550505050505050565b61123a611d57565b73ffffffffffffffffffffffffffffffffffffffff1661125861136c565b73ffffffffffffffffffffffffffffffffffffffff16146112ae576040517f08c379a00000000000000000000000000000000000000000000000000000000081526004016112a5906123ea565b60405180910390fd5b600073ffffffffffffffffffffffffffffffffffffffff1660008054906101000a900473ffffffffffffffffffffffffffffffffffffffff1673ffffffffffffffffffffffffffffffffffffffff167f8be0079c531659141344cd1fd0a4f28419497f9722a3daafe3b4186f6b6457e060405160405180910390a360008060006101000a81548173ffffffffffffffffffffffffffffffffffffffff021916908373ffffffffffffffffffffffffffffffffffffffff160217905550565b60008060009054906101000a900473ffffffffffffffffffffffffffffffffffffffff16905090565b61139d611d57565b73ffffffffffffffffffffffffffffffffffffffff166113bb61136c565b73ffffffffffffffffffffffffffffffffffffffff1614611411576040517f08c379a0000000000000000000000000000000000000000000000000000000008152600401611408906123ea565b60405180910390fd5b60405180604001604052808381526020018273ffffffffffffffffffffffffffffffffffffffff16815250600160008481526020019081526020016000206000820151816000015560208201518160010160006101000a81548173ffffffffffffffffffffffffffffffffffffffff021916908373ffffffffffffffffffffffffffffffffffffffff16021790555090505060028290806001815401808255809150506001900390600052602060002001600090919091909150555050565b600281815481106114e057600080fd5b906000526020600020016000915090505481565b80600073ffffffffffffffffffffffffffffffffffffffff166001600083815260200190815260200160002060010160009054906101000a900473ffffffffffffffffffffffffffffffffffffffff1673ffffffffffffffffffffffffffffffffffffffff16141561159b576040517f08c379a0000000000000000000000000000000000000000000000000000000008152600401611592906123ca565b60405180910390fd5b82600360003373ffffffffffffffffffffffffffffffffffffffff1673ffffffffffffffffffffffffffffffffffffffff168152602001908152602001600020600084815260200190815260200160002054101561162e576040517f08c379a00000000000000000000000000000000000000000000000000000000081526004016116259061240a565b60405180910390fd5b61169183600360003373ffffffffffffffffffffffffffffffffffffffff1673ffffffffffffffffffffffffffffffffffffffff168152602001908152602001600020600085815260200190815260200160002054611d5f90919063ffffffff16565b600360003373ffffffffffffffffffffffffffffffffffffffff1673ffffffffffffffffffffffffffffffffffffffff1681526020019081526020016000206000848152602001908152602001600020819055506001600083815260200190815260200160002060010160009054906101000a900473ffffffffffffffffffffffffffffffffffffffff1673ffffffffffffffffffffffffffffffffffffffff1663a9059cbb33856040518363ffffffff1660e01b815260040161175692919061231b565b602060405180830381600087803b15801561177057600080fd5b505af1158015611784573d6000803e3d6000fd5b505050506040513d601f19601f820116820180604052508101906117a89190611e59565b50505050565b60606005600084815260200190815260200160002060008360018111156117fe577f4e487b7100000000000000000000000000000000000000000000000000000000600052602160045260246000fd5b8152602001908152602001600020805480602002602001604051908101604052809291908181526020016000905b8282101561196357838290600052602060002090600502016040518060c0016040529081600082015481526020016001820160009054906101000a900473ffffffffffffffffffffffffffffffffffffffff1673ffffffffffffffffffffffffffffffffffffffff1673ffffffffffffffffffffffffffffffffffffffff1681526020016001820160149054906101000a900460ff1660018111156118fa577f4e487b7100000000000000000000000000000000000000000000000000000000600052602160045260246000fd5b6001811115611932577f4e487b7100000000000000000000000000000000000000000000000000000000600052602160045260246000fd5b815260200160028201548152602001600382015481526020016004820154815250508152602001906001019061182c565b50505050905092915050565b80600073ffffffffffffffffffffffffffffffffffffffff166001600083815260200190815260200160002060010160009054906101000a900473ffffffffffffffffffffffffffffffffffffffff1673ffffffffffffffffffffffffffffffffffffffff161415611a16576040517f08c379a0000000000000000000000000000000000000000000000000000000008152600401611a0d906123ca565b60405180910390fd5b6001600083815260200190815260200160002060010160009054906101000a900473ffffffffffffffffffffffffffffffffffffffff1673ffffffffffffffffffffffffffffffffffffffff166323b872dd3330866040518463ffffffff1660e01b8152600401611a89939291906122e4565b602060405180830381600087803b158015611aa357600080fd5b505af1158015611ab7573d6000803e3d6000fd5b505050506040513d601f19601f82011682018060405250810190611adb9190611e59565b50611b3f83600360003373ffffffffffffffffffffffffffffffffffffffff1673ffffffffffffffffffffffffffffffffffffffff168152602001908152602001600020600085815260200190815260200160002054611d7590919063ffffffff16565b600360003373ffffffffffffffffffffffffffffffffffffffff1673ffffffffffffffffffffffffffffffffffffffff168152602001908152602001600020600084815260200190815260200160002081905550505050565b611ba0611d57565b73ffffffffffffffffffffffffffffffffffffffff16611bbe61136c565b73ffffffffffffffffffffffffffffffffffffffff1614611c14576040517f08c379a0000000000000000000000000000000000000000000000000000000008152600401611c0b906123ea565b60405180910390fd5b600073ffffffffffffffffffffffffffffffffffffffff168173ffffffffffffffffffffffffffffffffffffffff161415611c84576040517f08c379a0000000000000000000000000000000000000000000000000000000008152600401611c7b906123aa565b60405180910390fd5b8073ffffffffffffffffffffffffffffffffffffffff1660008054906101000a900473ffffffffffffffffffffffffffffffffffffffff1673ffffffffffffffffffffffffffffffffffffffff167f8be0079c531659141344cd1fd0a4f28419497f9722a3daafe3b4186f6b6457e060405160405180910390a3806000806101000a81548173ffffffffffffffffffffffffffffffffffffffff021916908373ffffffffffffffffffffffffffffffffffffffff16021790555050565b60008183611d4f9190612546565b905092915050565b600033905090565b60008183611d6d91906125a0565b905092915050565b60008183611d8391906124f0565b905092915050565b600081359050611d9a81612730565b92915050565b600081519050611daf81612747565b92915050565b600081359050611dc48161275e565b92915050565b600081359050611dd981612775565b92915050565b600081359050611dee81612785565b92915050565b600060208284031215611e0657600080fd5b6000611e1484828501611d8b565b91505092915050565b60008060408385031215611e3057600080fd5b6000611e3e85828601611d8b565b9250506020611e4f85828601611db5565b9150509250929050565b600060208284031215611e6b57600080fd5b6000611e7984828501611da0565b91505092915050565b600060208284031215611e9457600080fd5b6000611ea284828501611db5565b91505092915050565b60008060408385031215611ebe57600080fd5b6000611ecc85828601611db5565b9250506020611edd85828601611d8b565b9150509250929050565b60008060408385031215611efa57600080fd5b6000611f0885828601611db5565b9250506020611f1985828601611dca565b9150509250929050565b600080600060608486031215611f3857600080fd5b6000611f4686828701611db5565b9350506020611f5786828701611ddf565b9250506040611f6886828701611ddf565b9150509250925092565b60008060008060808587031215611f8857600080fd5b6000611f9687828801611dca565b9450506020611fa787828801611db5565b9350506040611fb887828801611ddf565b9250506060611fc987828801611ddf565b91505092959194509250565b600060208284031215611fe757600080fd5b6000611ff584828501611ddf565b91505092915050565b6000806040838503121561201157600080fd5b600061201f85828601611ddf565b925050602061203085828601611db5565b9150509250929050565b60006120468383612230565b60c08301905092915050565b61205b816125d4565b82525050565b61206a816125d4565b82525050565b600061207b826124b6565b61208581856124ce565b9350612090836124a6565b8060005b838110156120c15781516120a8888261203a565b97506120b3836124c1565b925050600181019050612094565b5085935050505092915050565b6120d7816125f2565b82525050565b6120e6816125f2565b82525050565b6120f581612639565b82525050565b61210481612639565b82525050565b60006121176026836124df565b91507f4f776e61626c653a206e6577206f776e657220697320746865207a65726f206160008301527f64647265737300000000000000000000000000000000000000000000000000006020830152604082019050919050565b600061217d6014836124df565b91507f546f6b656e20646f6573206e6f742065786973740000000000000000000000006000830152602082019050919050565b60006121bd6020836124df565b91507f4f776e61626c653a2063616c6c6572206973206e6f7420746865206f776e65726000830152602082019050919050565b60006121fd6016836124df565b91507f42616c616e6365206e6f742073756666696369656e74000000000000000000006000830152602082019050919050565b60c08201600082015161224660008501826122ab565b5060208201516122596020850182612052565b50604082015161226c60408501826120ec565b50606082015161227f60608501826120ce565b50608082015161229260808501826122ab565b5060a08201516122a560a08501826122ab565b50505050565b6122b48161262f565b82525050565b6122c38161262f565b82525050565b60006020820190506122de6000830184612061565b92915050565b60006060820190506122f96000830186612061565b6123066020830185612061565b61231360408301846122ba565b949350505050565b60006040820190506123306000830185612061565b61233d60208301846122ba565b9392505050565b6000602082019050818103600083015261235e8184612070565b905092915050565b600060208201905061237b60008301846120dd565b92915050565b600060408201905061239660008301856120dd565b6123a36020830184612061565b9392505050565b600060208201905081810360008301526123c38161210a565b9050919050565b600060208201905081810360008301526123e381612170565b9050919050565b60006020820190508181036000830152612403816121b0565b9050919050565b60006020820190508181036000830152612423816121f0565b9050919050565b600060208201905061243f60008301846122ba565b92915050565b600060c08201905061245a60008301896122ba565b6124676020830188612061565b61247460408301876120fb565b61248160608301866120dd565b61248e60808301856122ba565b61249b60a08301846122ba565b979650505050505050565b6000819050602082019050919050565b600081519050919050565b6000602082019050919050565b600082825260208201905092915050565b600082825260208201905092915050565b60006124fb8261262f565b91506125068361262f565b9250827fffffffffffffffffffffffffffffffffffffffffffffffffffffffffffffffff0382111561253b5761253a6126be565b5b828201905092915050565b60006125518261262f565b915061255c8361262f565b9250817fffffffffffffffffffffffffffffffffffffffffffffffffffffffffffffffff0483118215151615612595576125946126be565b5b828202905092915050565b60006125ab8261262f565b91506125b68361262f565b9250828210156125c9576125c86126be565b5b828203905092915050565b60006125df8261260f565b9050919050565b60008115159050919050565b6000819050919050565b600081905061260a8261271c565b919050565b600073ffffffffffffffffffffffffffffffffffffffff82169050919050565b6000819050919050565b6000612644826125fc565b9050919050565b60006126568261262f565b9150600082141561266a576126696126be565b5b600182039050919050565b60006126808261262f565b91507fffffffffffffffffffffffffffffffffffffffffffffffffffffffffffffffff8214156126b3576126b26126be565b5b600182019050919050565b7f4e487b7100000000000000000000000000000000000000000000000000000000600052601160045260246000fd5b7f4e487b7100000000000000000000000000000000000000000000000000000000600052602160045260246000fd5b6002811061272d5761272c6126ed565b5b50565b612739816125d4565b811461274457600080fd5b50565b612750816125e6565b811461275b57600080fd5b50565b612767816125f2565b811461277257600080fd5b50565b6002811061278257600080fd5b50565b61278e8161262f565b811461279957600080fd5b5056fea264697066735822122012d590e25dff32acfaa259af65dcf16266f5f9b42e040f63c51500cd8f744bc064736f6c63430008000033",
  "immutableReferences": {},
  "source": "// SPDX-License-Identifier: UNLICENSED\npragma solidity ^0.8.0;\npragma experimental ABIEncoderV2;\n\nimport \"./Wallet.sol\";\n\ncontract Dex is Wallet {\n\n    using SafeMath for uint256;\n\n    enum Side {\n        BUY,\n        SELL\n    }\n\n    struct Order {\n       uint id;\n       address trader;\n       Side side;\n    //    bool buyOrder;\n       bytes32 ticker;\n       uint amount;\n       uint price;\n    }\n\n    uint public nextOrderId = 0;\n\n    mapping(bytes32 => mapping(uint => Order[])) public orderBook;\n\n    function getOrderBook(bytes32 ticker, Side side) view public returns(Order[] memory) {\n        return orderBook[ticker][uint(side)];\n    }\n\n    function createLimitOrder(Side side, bytes32 ticker, uint amount, uint price) public {\n        if(side == Side.BUY) {\n            require(balances[msg.sender][\"ETH\"] >= amount.mul(price));\n        }\n\n        else if(side == Side.SELL) {\n            require(balances[msg.sender][ticker] >= amount);\n        }\n\n        Order[] storage orders = orderBook[ticker][uint(side)];\n        // list of the orders\n        orders.push(\n            Order(nextOrderId, msg.sender, side, ticker, amount, price)\n        );\n\n        // Bubble sort\n        uint i = orders.length > 0 ? orders.length - 1 : 0;\n\n        if (side == Side.BUY) {\n            while(i > 0) {\n                if(orders[i - 1].price > orders[i].price) {\n                    break;\n                }\n                Order memory orderToMove = orders[i - 1];\n                orders[i - 1] = orders[i];\n                orders[i] = orderToMove;\n                i--;\n            }\n        }\n        else if (side == Side.SELL) {\n            while(i > 0) {\n                if(orders[i - 1].price < orders[i].price) {\n                    break;\n                }\n                Order memory orderToMove = orders[i - 1];\n                orders[i - 1] = orders[i];\n                orders[i] = orderToMove;\n                i--;\n            }\n        }\n\n        nextOrderId++;\n\n    }\n}",
  "sourcePath": "/home/kresna/projects/ivan-academy/dex/contracts/Dex.sol",
  "compiler": {
    "name": "solc",
    "version": "0.8.0+commit.c7dfd78e.Emscripten.clang"
  },
  "schemaVersion": "3.3.4",
  "updatedAt": "2021-05-17T01:40:34.167Z",
  "devdoc": {
    "kind": "dev",
    "methods": {
      "owner()": {
        "details": "Returns the address of the current owner."
      },
      "renounceOwnership()": {
        "details": "Leaves the contract without owner. It will not be possible to call `onlyOwner` functions anymore. Can only be called by the current owner. NOTE: Renouncing ownership will leave the contract without an owner, thereby removing any functionality that is only available to the owner."
      },
      "transferOwnership(address)": {
        "details": "Transfers ownership of the contract to a new account (`newOwner`). Can only be called by the current owner."
      }
    },
    "version": 1
  },
  "userdoc": {
    "kind": "user",
    "methods": {},
    "version": 1
  }
}